:100000000C947D000C9400000C9400000C940000F3
:100010000C9400000C9400000C9400000C94000060
:100020000C9400000C9400000C9400000C94000050
:100030000C9400000C9400000C9400000C94000040
:100040000C9400000C9400000C9400000C94000030
:040050000C9400000C
:1000FA00BFE5BDBFB4E0BEBF0E94AD002F923F92E4
:10010A00B3E3B9B9B0E0B0BDAEDF25E01FE002EF5E
:10011A000A95F1F71A95E1F72A95D1F7B0E62B2E51
:10012A00B0E03B2EC9DFBDE02B2E8FDFBAE02B2ECD
:10013A008CDFD9DF002329F094DF00936500202E9D
:0A014A0084DFF7CF3F902F90FFCF26
:1000C20010E0F1010081202F022F003079F03F92E1
:1000D2002F92202EBEDF2F903F90012F0F5F102F07
:0E00E200E02FF0E0E20DF31D0081EFCF089556
:10005400BBB1B5FD01C0FCCFBBB1B6FF03C0BBB1A2
:08006400B064BBB92CB808958B
:0A00F0000BB0002707FC03950895EC
:04006C000CB1089536
:0A00B80005900D920197E1F70895FD
:10007000BAE2B0936600B0E0B0936700B6E3B09325
:100080006800B0E0B0936900B8E7B0936C00B0E0EE
:10009000B0936D00BFEFB0936A00BFEFB0936B00F9
:1000A000B1B3BE7FB1BBB1B3B260B1BB0AB108613D
:0800B0000AB9B6E8B0BD0895DD
:10015A00A0E6B0E0E4E5F1E085E090E00E945C0012
:02016A000895F6
:05015400496E69740012
:00000001FF
