:100000000C942A000C943F000C943F000C943F0089
:100010000C943F000C943F000C943F000C943F0064
:100020000C943F000C943F000C943F000C943F0054
:100030000C943F000C943F000C943F000C943F0044
:100040000C943F000C943F000C943F000C943F0034
:100050000C943F0011241FBECFE5D4E0DEBFCDBF1E
:1000600010E0A0E6B0E0E6E1F2E002C005900D92FB
:10007000A437B107D9F70E9490000C9409010C94A1
:10008000000085BB90989198929A89EF90E0019733
:10009000F1F700C00000929889EF90E00197F1F726
:1000A00000C00000089585BB909A9198929A89EFBC
:1000B00090E00197F1F700C00000929889EF90E07E
:1000C0000197F1F700C000000895CF93DF93EC0192
:1000D0008881882331F021960E94530089918111F3
:1000E000FBCFDF91CF910895462F50E060E670E09E
:1000F0000E94C90080E690E00E946500089584EEA9
:1001000086B910BE0895806487B983EC99E00197A1
:10011000F1F700C0000084B125B190E0922B089562
:1001200087E081BB1ABA8FEF84BB87BB88E30E944C
:1001300041008EE00E9441000E947F0083EC99E024
:100140000197F1F700C0000081E00E94410080E8C3
:100150000E94410086E690E00E94650080E00E94D7
:100160008300EC0189EF90E00197F1F700C00000F7
:1001700085EC0E9441006AE0CE010E9474009FE37A
:100180002DE083E0915020408040E1F700C0000066
:10019000DBCF4532510520F4423010F00C94D400EE
:1001A000FB011082CB010895BB274A3031F499231B
:1001B00022F4BDE2909581959F4F0C94E000BB27FF
:1001C000FB015527AA27880F991FAA1FA41710F013
:1001D000A41B83955051B9F7A05DAA3308F0A95D1F
:1001E000A193009779F7B111B1931192CB010C94BF
:1001F000F900DC01FC01672F71917723E1F7329759
:1002000004C07C916D9370836291AE17BF07C8F3F1
:060210000895F894FFCFF1
:1002160030303030300020416E616C6F672052659F
:04022600616400000F
:00000001FF
