S018000075616172745F696E74657272757074732E7372656330
S11300000C942A000C9434000C9434000C943400A6
S11300100C9434000C9434000C9434000C9434008C
S11300200C9434000C9434000C9434000C94400070
S11300300C9434000C9434000C9434000C9434006C
S11300400C9434000C9434000C9434000C9434005C
S11300500C94340011241FBECFE5D4E0DEBFCDBF25
S11300600E9436000C944E000C94000088E18AB97A
S113007086E880BD8FEF80BD89B9579A7894FFCF09
S11300801F920F920FB60F9211248F938CB18CB9DB
S11300908F910F900FBE0F901F901895F894FFCF7B
S9030000FC
