:100000000C9418020C9400000C9400000C94000056
:100010000C9400000C9400000C9400000C94000060
:100020000C9400000C9400000C9400000C94000050
:100030000C9400000C9400000C9400000C94000040
:100040000C9400000C9400000C9400000C94000030
:040050000C9400000C
:10043000BFE5BDBFB4E0BEBF0E94B0022F923F92A5
:100440004F925F927CDEB1E02B2E90DFBCE02B2E32
:100450008DDFB9E74B2EB0E05B2EB6E03B2EB1E06E
:100460002B2E26DEB1E74B2EB0E05B2EB6E03B2E06
:10047000B2E02B2E1DDE26E616E702EC0A95F1F718
:100480001A95E1F72A95D1F7B1E02B2E6FDFB0E690
:100490004B2EB0E05B2EB1E03B2EB1E02B2E08DE00
:1004A000B1E84B2EB0E05B2EB4E03B2EB2E02B2E39
:1004B000FFDD26E616E702EC0A95F1F71A95E1F75B
:1004C0002A95D1F7B0E0B0938B0000918B000430F7
:1004D00050F4BCE12B2E4ADFE0DD00918B000F5F72
:1004E00000938B00F2CFB0E0B0938B0000918B00B3
:1004F000073050F4B8E12B2E39DFCFDD00918B00AF
:100500000F5F00938B00F2CFB0E0B0938B000091AF
:100510008B00073050F4BCE12B2E28DFBEDD0091AC
:100520008B000F5F00938B00F2CFDDCF5F904F9079
:060530003F902F90FFCF69
:10013E00B0913200B77FB0933200B0913200BB7FE6
:10014E00B0933200B0913200BF77B0933200B091CD
:10015E003200BF7BB0933200B0913200BF7DB093BE
:10016E003200B0913200BF7EB0933200B0913100B8
:10017E00B860B0933100B0913100B460B0933100EB
:10018E00B0913100B061B0933100B0913100B062E6
:10019E00B0933100B0913100B064B0933100B091A2
:1001AE003100B068B093310065DF64DF63DFB0917A
:1001BE003200B062B0933200B0913200B061B093B1
:1001CE003200B0913200B860B09332003CDFB09193
:1001DE003200B77FB09332004DDFB0913200B8607D
:1001EE00B093320030DFB0913200B77FB09332005F
:1001FE0041DFB0913200B860B093320024DFB0918D
:10020E003200B77FB093320035DFB0913200BF7E3F
:10021E00B0933200B0913200B860B093320013DF69
:10022E00B0913200B77FB093320024DFB09132002C
:10023E00B860B093320007DFB0913200B77FB09351
:10024E003200B0913200BF7DB0933200B0913200D7
:10025E00B068B0933200B0913200B860B093320003
:10026E00F2DEB0913200B77FB093320003DFB0916F
:10027E003200BF77B0933200B0913200B061B093CC
:10028E003200B0913200B860B0933200DCDEB09133
:10029E003200B77FB0933200B0913200BF7EB09380
:1002AE003200B0913200B860B0933200CCDEB09123
:1002BE003200B77FB0933200DDDEB0913200B8600D
:1002CE00B0933200C0DEB0913200B77FB0933200EF
:1002DE00B0913200B061B0933200B0913200B8608C
:1002EE00B0933200B0DEB0913200B77FB0933200DF
:1002FE00C1DEB0913200BF7EB0933200B0913200B9
:10030E00B860B09332009FDEB0913200B77FB093E9
:10031E003200B0913200B068B0933200B09132002A
:10032E00B064B0933200B0913200B062B09332003C
:10033E00B0913200B061B0933200B0913200B8602B
:10034E00B093320080DEB0913200B77FB0933200AE
:0E035E0091DEB0918A00B160B0938A000895DC
:0E00820018E40DE60A95F1F71A95E1F70895D6
:0A00540003E00A95F1F7000008959B
:10036C0027FAB0913200B7F9B093320026FAB09167
:10037C003200B6F9B093320025FAB0913200B5F9DB
:10038C00B093320024FAB0913200B4F9B093320039
:10039C00B0918A0000903200E894B0FF689402F8A3
:1003AC0000923200B0913200B860B09332004CDE53
:1003BC00B0913200B77FB093320023FAB091320083
:1003CC00B7F9B093320022FAB0913200B6F9B0937B
:1003DC00320021FAB0913200B5F9B093320020FA14
:1003EC00B0913200B4F9B0933200B0918A00009011
:1003FC003200E894B0FF689402F800923200B09199
:10040C003200B860B09332001FDEB0913200B77F7B
:10041C00B0933200B0918A00B0FF02C02CDE01C054
:04042C0024DE08952D
:0C00760006EA0A95F1F70000000008956A
:1000B0002F920FC0B0E82B2E19C0B0EC2B2E16C01B
:1000C000B4E92B2E13C0B4ED2B2E10C0B0E82B2EAC
:1000D0000DC0B1E02B1671F3B2E02B1671F3B3E053
:1000E0002B1671F3B4E02B1671F3F0CF032D0150F2
:1000F000020D202E202E3AD1B0918A00BE7FB093FF
:100100008A0010E0E12FF0E0E40DF51D00810023EE
:1001100079F0E12FF0E0E40DF51D00811F932F929F
:10012000202E9DDF2F901F91012F0F5F102FEACF00
:0E013000B0918A00B160B0938A002F900895BC
:10005E00B0918A00BE7FB0938A0081D1B0918A00A0
:08006E00B160B0938A0008950F
:10009A002AE11EE50FE60A95F1F71A95E1F72A9586
:0600AA00D1F700000895EB
:0A00900005900D920197E1F7089525
:10056000A0E6B0E0E6E3F5E08AE290E00E94480011
:020570000895EC
:100536006D696B726F456C656B74726F6E696B611A
:0105460000B4
:080547006578616D706C6500C0
:08054F004C636434626974001E
:09055700456173794156523600EA
:00000001FF
